{"abi":[{"type":"function","name":"addPerson","inputs":[{"name":"_name","type":"string","internalType":"string"},{"name":"_favoriteNumber","type":"uint256","internalType":"uint256"}],"outputs":[],"stateMutability":"nonpayable"},{"type":"function","name":"nameFavoriteNumber","inputs":[{"name":"","type":"string","internalType":"string"}],"outputs":[{"name":"","type":"uint256","internalType":"uint256"}],"stateMutability":"view"},{"type":"function","name":"people","inputs":[{"name":"","type":"uint256","internalType":"uint256"}],"outputs":[{"name":"favoriteNumber","type":"uint256","internalType":"uint256"},{"name":"name","type":"string","internalType":"string"}],"stateMutability":"view"},{"type":"function","name":"person","inputs":[],"outputs":[{"name":"favoriteNumber","type":"uint256","internalType":"uint256"},{"name":"name","type":"string","internalType":"string"}],"stateMutability":"view"},{"type":"function","name":"retrieve","inputs":[],"outputs":[{"name":"","type":"uint256","internalType":"uint256"}],"stateMutability":"view"},{"type":"function","name":"store","inputs":[{"name":"_favoriteNumber","type":"uint256","internalType":"uint256"}],"outputs":[],"stateMutability":"nonpayable"}],"bytecode":{"object":"0x6000805460ff19166001908117909155607b905560c060405260046080908152634669766560e01b60a052600290610037908261016a565b50600419600355600480546001600160a01b031916734d088fe37422199deaa6bc32fd7514b35c1759081790556218d85d60ea1b60055560408051808201825260028152815180830190925260078252665368756268616d60c81b60208381019190915281018290528051600890815590916009906100b6908261016a565b5050503480156100c557600080fd5b50610228565b634e487b7160e01b600052604160045260246000fd5b600181811c908216806100f557607f821691505b60208210810361011557634e487b7160e01b600052602260045260246000fd5b50919050565b601f82111561016557806000526020600020601f840160051c810160208510156101425750805b601f840160051c820191505b81811015610162576000815560010161014e565b50505b505050565b81516001600160401b03811115610183576101836100cb565b6101978161019184546100e1565b8461011b565b6020601f8211600181146101cb57600083156101b35750848201515b600019600385901b1c1916600184901b178455610162565b600084815260208120601f198516915b828110156101fb57878501518255602094850194600190920191016101db565b50848210156102195786840151600019600387901b60f8161c191681555b50505050600190811b01905550565b6105a9806102376000396000f3fe608060405234801561001057600080fd5b50600436106100625760003560e01c80632e64cec1146100675780636057361d1461007e5780636f760f411461009357806377ec2b55146100a65780639e7a13ad146100bc578063e126be9f146100cf575b600080fd5b6001545b6040519081526020015b60405180910390f35b61009161008c366004610271565b600655565b005b6100916100a136600461032f565b6100fa565b6100ae6101a5565b604051610075929190610398565b6100ae6100ca366004610271565b61023c565b61006b6100dd3660046103d2565b805160208183018101805160078252928201919093012091525481565b6040805180820190915281815260208101838152600a8054600181018255600091909152825160029091027fc65a7bb8d6351c1cf70c95a316cc6a92839c986682d98bc35f958f4883f9d2a88101918255915183927fc65a7bb8d6351c1cf70c95a316cc6a92839c986682d98bc35f958f4883f9d2a9019061017c9082610498565b505050816007846040516101909190610557565b90815260405190819003602001902055505050565b60088054600980549192916101b99061040f565b80601f01602080910402602001604051908101604052809291908181526020018280546101e59061040f565b80156102325780601f1061020757610100808354040283529160200191610232565b820191906000526020600020905b81548152906001019060200180831161021557829003601f168201915b5050505050905082565b600a818154811061024c57600080fd5b600091825260209091206002909102018054600182018054919350906101b99061040f565b60006020828403121561028357600080fd5b5035919050565b634e487b7160e01b600052604160045260246000fd5b600082601f8301126102b157600080fd5b813567ffffffffffffffff8111156102cb576102cb61028a565b604051601f8201601f19908116603f0116810167ffffffffffffffff811182821017156102fa576102fa61028a565b60405281815283820160200185101561031257600080fd5b816020850160208301376000918101602001919091529392505050565b6000806040838503121561034257600080fd5b823567ffffffffffffffff81111561035957600080fd5b610365858286016102a0565b95602094909401359450505050565b60005b8381101561038f578181015183820152602001610377565b50506000910152565b82815260406020820152600082518060408401526103bd816060850160208701610374565b601f01601f1916919091016060019392505050565b6000602082840312156103e457600080fd5b813567ffffffffffffffff8111156103fb57600080fd5b610407848285016102a0565b949350505050565b600181811c9082168061042357607f821691505b60208210810361044357634e487b7160e01b600052602260045260246000fd5b50919050565b601f82111561049357806000526020600020601f840160051c810160208510156104705750805b601f840160051c820191505b81811015610490576000815560010161047c565b50505b505050565b815167ffffffffffffffff8111156104b2576104b261028a565b6104c6816104c0845461040f565b84610449565b6020601f8211600181146104fa57600083156104e25750848201515b600019600385901b1c1916600184901b178455610490565b600084815260208120601f198516915b8281101561052a578785015182556020948501946001909201910161050a565b50848210156105485786840151600019600387901b60f8161c191681555b50505050600190811b01905550565b60008251610569818460208701610374565b919091019291505056fea2646970667358221220059569fa607e065ec0ae1aad27e3bb189b1236bfe9e19ed03fb7565fecb1c5e764736f6c634300081b0033","linkReferences":{}},"methodIdentifiers":{"addPerson(string,uint256)":"6f760f41","nameFavoriteNumber(string)":"e126be9f","people(uint256)":"9e7a13ad","person()":"77ec2b55","retrieve()":"2e64cec1","store(uint256)":"6057361d"},"id":0}