{
  "contractName": "Voting",
  "abi": [
    {
      "inputs": [],
      "stateMutability": "nonpayable",
      "type": "constructor"
    },
    {
      "inputs": [
        {
          "internalType": "uint256",
          "name": "",
          "type": "uint256"
        }
      ],
      "name": "candidates",
      "outputs": [
        {
          "internalType": "uint256",
          "name": "id",
          "type": "uint256"
        },
        {
          "internalType": "string",
          "name": "name",
          "type": "string"
        },
        {
          "internalType": "uint256",
          "name": "voteCount",
          "type": "uint256"
        }
      ],
      "stateMutability": "view",
      "type": "function"
    },
    {
      "inputs": [],
      "name": "candidatesCount",
      "outputs": [
        {
          "internalType": "uint256",
          "name": "",
          "type": "uint256"
        }
      ],
      "stateMutability": "view",
      "type": "function"
    },
    {
      "inputs": [],
      "name": "owner",
      "outputs": [
        {
          "internalType": "address",
          "name": "",
          "type": "address"
        }
      ],
      "stateMutability": "view",
      "type": "function"
    },
    {
      "inputs": [
        {
          "internalType": "address",
          "name": "",
          "type": "address"
        }
      ],
      "name": "voters",
      "outputs": [
        {
          "internalType": "bool",
          "name": "hasVoted",
          "type": "bool"
        },
        {
          "internalType": "uint256",
          "name": "vote",
          "type": "uint256"
        },
        {
          "internalType": "bool",
          "name": "isRegistered",
          "type": "bool"
        }
      ],
      "stateMutability": "view",
      "type": "function"
    },
    {
      "inputs": [],
      "name": "votersCount",
      "outputs": [
        {
          "internalType": "uint256",
          "name": "",
          "type": "uint256"
        }
      ],
      "stateMutability": "view",
      "type": "function"
    },
    {
      "inputs": [
        {
          "internalType": "string",
          "name": "_name",
          "type": "string"
        }
      ],
      "name": "addCandidate",
      "outputs": [],
      "stateMutability": "nonpayable",
      "type": "function"
    },
    {
      "inputs": [
        {
          "internalType": "address",
          "name": "_voter",
          "type": "address"
        }
      ],
      "name": "registerVoter",
      "outputs": [],
      "stateMutability": "nonpayable",
      "type": "function"
    },
    {
      "inputs": [
        {
          "internalType": "uint256",
          "name": "_candidateId",
          "type": "uint256"
        }
      ],
      "name": "vote",
      "outputs": [],
      "stateMutability": "nonpayable",
      "type": "function"
    },
    {
      "inputs": [
        {
          "internalType": "uint256",
          "name": "_candidateId",
          "type": "uint256"
        }
      ],
      "name": "getCandidate",
      "outputs": [
        {
          "internalType": "string",
          "name": "",
          "type": "string"
        },
        {
          "internalType": "uint256",
          "name": "",
          "type": "uint256"
        }
      ],
      "stateMutability": "view",
      "type": "function"
    }
  ],
  "bytecode": "0x608060405234801561000f575f80fd5b50335f806101000a81548173ffffffffffffffffffffffffffffffffffffffff021916908373ffffffffffffffffffffffffffffffffffffffff16021790555061112e8061005c5f395ff3fe608060405234801561000f575f80fd5b5060043610610091575f3560e01c806338db6dd31161006457806338db6dd314610132578063462e91ec1461014e5780638da5cb5b1461016a57806398c0793814610188578063a3ec138d146101a657610091565b80630121b93f146100955780632d35a8a2146100b15780633477ee2e146100cf57806335b8e82014610101575b5f80fd5b6100af60048036038101906100aa919061083f565b6101d8565b005b6100b9610408565b6040516100c69190610879565b60405180910390f35b6100e960048036038101906100e4919061083f565b61040e565b6040516100f89392919061091c565b60405180910390f35b61011b6004803603810190610116919061083f565b6104ba565b604051610129929190610958565b60405180910390f35b61014c600480360381019061014791906109e0565b610593565b005b61016860048036038101906101639190610b37565b610692565b005b610172610794565b60405161017f9190610b8d565b60405180910390f35b6101906107b7565b60405161019d9190610879565b60405180910390f35b6101c060048036038101906101bb91906109e0565b6107bd565b6040516101cf93929190610bc0565b60405180910390f35b60025f3373ffffffffffffffffffffffffffffffffffffffff1673ffffffffffffffffffffffffffffffffffffffff1681526020019081526020015f206002015f9054906101000a900460ff16610264576040517f08c379a000000000000000000000000000000000000000000000000000000000815260040161025b90610c3f565b60405180910390fd5b60025f3373ffffffffffffffffffffffffffffffffffffffff1673ffffffffffffffffffffffffffffffffffffffff1681526020019081526020015f205f015f9054906101000a900460ff16156102f0576040517f08c379a00000000000000000000000000000000000000000000000000000000081526004016102e790610ca7565b60405180910390fd5b5f8111801561030157506003548111155b610340576040517f08c379a000000000000000000000000000000000000000000000000000000000815260040161033790610d0f565b60405180910390fd5b600160025f3373ffffffffffffffffffffffffffffffffffffffff1673ffffffffffffffffffffffffffffffffffffffff1681526020019081526020015f205f015f6101000a81548160ff0219169083151502179055508060025f3373ffffffffffffffffffffffffffffffffffffffff1673ffffffffffffffffffffffffffffffffffffffff1681526020019081526020015f206001018190555060015f8281526020019081526020015f206002015f81548092919061040090610d5a565b919050555050565b60035481565b6001602052805f5260405f205f91509050805f01549080600101805461043390610dce565b80601f016020809104026020016040519081016040528092919081815260200182805461045f90610dce565b80156104aa5780601f10610481576101008083540402835291602001916104aa565b820191905f5260205f20905b81548152906001019060200180831161048d57829003601f168201915b5050505050908060020154905083565b60605f8060015f8581526020019081526020015f206040518060600160405290815f82015481526020016001820180546104f390610dce565b80601f016020809104026020016040519081016040528092919081815260200182805461051f90610dce565b801561056a5780601f106105415761010080835404028352916020019161056a565b820191905f5260205f20905b81548152906001019060200180831161054d57829003601f168201915b505050505081526020016002820154815250509050806020015181604001519250925050915091565b5f8054906101000a900473ffffffffffffffffffffffffffffffffffffffff1673ffffffffffffffffffffffffffffffffffffffff163373ffffffffffffffffffffffffffffffffffffffff1614610620576040517f08c379a000000000000000000000000000000000000000000000000000000000815260040161061790610e6e565b60405180910390fd5b60045f81548092919061063290610d5a565b9190505550600160025f8373ffffffffffffffffffffffffffffffffffffffff1673ffffffffffffffffffffffffffffffffffffffff1681526020019081526020015f206002015f6101000a81548160ff02191690831515021790555050565b5f8054906101000a900473ffffffffffffffffffffffffffffffffffffffff1673ffffffffffffffffffffffffffffffffffffffff163373ffffffffffffffffffffffffffffffffffffffff161461071f576040517f08c379a000000000000000000000000000000000000000000000000000000000815260040161071690610e6e565b60405180910390fd5b60035f81548092919061073190610d5a565b9190505550604051806060016040528060035481526020018281526020015f81525060015f60035481526020019081526020015f205f820151815f015560208201518160010190816107839190611029565b506040820151816002015590505050565b5f8054906101000a900473ffffffffffffffffffffffffffffffffffffffff1681565b60045481565b6002602052805f5260405f205f91509050805f015f9054906101000a900460ff1690806001015490806002015f9054906101000a900460ff16905083565b5f604051905090565b5f80fd5b5f80fd5b5f819050919050565b61081e8161080c565b8114610828575f80fd5b50565b5f8135905061083981610815565b92915050565b5f6020828403121561085457610853610804565b5b5f6108618482850161082b565b91505092915050565b6108738161080c565b82525050565b5f60208201905061088c5f83018461086a565b92915050565b5f81519050919050565b5f82825260208201905092915050565b5f5b838110156108c95780820151818401526020810190506108ae565b5f8484015250505050565b5f601f19601f8301169050919050565b5f6108ee82610892565b6108f8818561089c565b93506109088185602086016108ac565b610911816108d4565b840191505092915050565b5f60608201905061092f5f83018661086a565b818103602083015261094181856108e4565b9050610950604083018461086a565b949350505050565b5f6040820190508181035f83015261097081856108e4565b905061097f602083018461086a565b9392505050565b5f73ffffffffffffffffffffffffffffffffffffffff82169050919050565b5f6109af82610986565b9050919050565b6109bf816109a5565b81146109c9575f80fd5b50565b5f813590506109da816109b6565b92915050565b5f602082840312156109f5576109f4610804565b5b5f610a02848285016109cc565b91505092915050565b5f80fd5b5f80fd5b7f4e487b71000000000000000000000000000000000000000000000000000000005f52604160045260245ffd5b610a49826108d4565b810181811067ffffffffffffffff82111715610a6857610a67610a13565b5b80604052505050565b5f610a7a6107fb565b9050610a868282610a40565b919050565b5f67ffffffffffffffff821115610aa557610aa4610a13565b5b610aae826108d4565b9050602081019050919050565b828183375f83830152505050565b5f610adb610ad684610a8b565b610a71565b905082815260208101848484011115610af757610af6610a0f565b5b610b02848285610abb565b509392505050565b5f82601f830112610b1e57610b1d610a0b565b5b8135610b2e848260208601610ac9565b91505092915050565b5f60208284031215610b4c57610b4b610804565b5b5f82013567ffffffffffffffff811115610b6957610b68610808565b5b610b7584828501610b0a565b91505092915050565b610b87816109a5565b82525050565b5f602082019050610ba05f830184610b7e565b92915050565b5f8115159050919050565b610bba81610ba6565b82525050565b5f606082019050610bd35f830186610bb1565b610be0602083018561086a565b610bed6040830184610bb1565b949350505050565b7f566f746572206973206e6f7420726567697374657265640000000000000000005f82015250565b5f610c2960178361089c565b9150610c3482610bf5565b602082019050919050565b5f6020820190508181035f830152610c5681610c1d565b9050919050565b7f566f7465722068617320616c726561647920766f7465640000000000000000005f82015250565b5f610c9160178361089c565b9150610c9c82610c5d565b602082019050919050565b5f6020820190508181035f830152610cbe81610c85565b9050919050565b7f496e76616c69642063616e6469646174652049440000000000000000000000005f82015250565b5f610cf960148361089c565b9150610d0482610cc5565b602082019050919050565b5f6020820190508181035f830152610d2681610ced565b9050919050565b7f4e487b71000000000000000000000000000000000000000000000000000000005f52601160045260245ffd5b5f610d648261080c565b91507fffffffffffffffffffffffffffffffffffffffffffffffffffffffffffffffff8203610d9657610d95610d2d565b5b600182019050919050565b7f4e487b71000000000000000000000000000000000000000000000000000000005f52602260045260245ffd5b5f6002820490506001821680610de557607f821691505b602082108103610df857610df7610da1565b5b50919050565b7f4f6e6c79206f776e65722063616e2063616c6c20746869732066756e6374696f5f8201527f6e00000000000000000000000000000000000000000000000000000000000000602082015250565b5f610e5860218361089c565b9150610e6382610dfe565b604082019050919050565b5f6020820190508181035f830152610e8581610e4c565b9050919050565b5f819050815f5260205f209050919050565b5f6020601f8301049050919050565b5f82821b905092915050565b5f60088302610ee87fffffffffffffffffffffffffffffffffffffffffffffffffffffffffffffffff82610ead565b610ef28683610ead565b95508019841693508086168417925050509392505050565b5f819050919050565b5f610f2d610f28610f238461080c565b610f0a565b61080c565b9050919050565b5f819050919050565b610f4683610f13565b610f5a610f5282610f34565b848454610eb9565b825550505050565b5f90565b610f6e610f62565b610f79818484610f3d565b505050565b5b81811015610f9c57610f915f82610f66565b600181019050610f7f565b5050565b601f821115610fe157610fb281610e8c565b610fbb84610e9e565b81016020851015610fca578190505b610fde610fd685610e9e565b830182610f7e565b50505b505050565b5f82821c905092915050565b5f6110015f1984600802610fe6565b1980831691505092915050565b5f6110198383610ff2565b9150826002028217905092915050565b61103282610892565b67ffffffffffffffff81111561104b5761104a610a13565b5b6110558254610dce565b611060828285610fa0565b5f60209050601f831160018114611091575f841561107f578287015190505b611089858261100e565b8655506110f0565b601f19841661109f86610e8c565b5f5b828110156110c6578489015182556001820191506020850194506020810190506110a1565b868310156110e357848901516110df601f891682610ff2565b8355505b6001600288020188555050505b50505050505056fea2646970667358221220916d0efa4af878e8679c6389b2fb6e0f101cfecd03ca4644b8eb15ce878f507e64736f6c63430008150033",
  "immutableReferences": {},
  "source": "// SPDX-License-Identifier: MIT\r\npragma solidity ^0.8.0;\r\n\r\ncontract Voting {\r\n    struct Candidate {\r\n        uint id;\r\n        string name;\r\n        uint voteCount;\r\n    }\r\n\r\n    struct Voter {\r\n        bool hasVoted;\r\n        uint vote;\r\n        bool isRegistered;\r\n    }\r\n\r\n    address public owner;\r\n    mapping(uint => Candidate) public candidates;\r\n    mapping(address => Voter) public voters;\r\n    uint public candidatesCount;\r\n    uint public votersCount;\r\n\r\n    modifier onlyOwner() {\r\n        require(msg.sender == owner, \"Only owner can call this function\");\r\n        _;\r\n    }\r\n\r\n    constructor() {\r\n        owner = msg.sender;\r\n    }\r\n\r\n    function addCandidate(string memory _name) public onlyOwner {\r\n        candidatesCount++;\r\n        candidates[candidatesCount] = Candidate(candidatesCount, _name, 0);\r\n    }\r\n\r\n    function registerVoter(address _voter) public onlyOwner {\r\n        votersCount++;\r\n        voters[_voter].isRegistered = true;\r\n    }\r\n\r\n    function vote(uint _candidateId) public {\r\n        require(voters[msg.sender].isRegistered, \"Voter is not registered\");\r\n        require(!voters[msg.sender].hasVoted, \"Voter has already voted\");\r\n        require(_candidateId > 0 && _candidateId <= candidatesCount, \"Invalid candidate ID\");\r\n\r\n        voters[msg.sender].hasVoted = true;\r\n        voters[msg.sender].vote = _candidateId;\r\n        candidates[_candidateId].voteCount++;\r\n    }\r\n\r\n    function getCandidate(uint _candidateId) public view returns (string memory, uint) {\r\n        Candidate memory candidate = candidates[_candidateId];\r\n        return (candidate.name, candidate.voteCount);\r\n    }\r\n}\r\n",
  "sourcePath": "C:\\Users\\Madhav\\Desktop\\projs\\web3\\sol-starter\\Truffle\\decentralized-voting\\contracts\\Voting.sol",
  "compiler": {
    "name": "solc",
    "version": "0.8.21+commit.d9974bed.Emscripten.clang"
  },
  "schemaVersion": "3.4.16",
  "updatedAt": "2024-08-04T19:16:12.893Z",
  "devdoc": {
    "kind": "dev",
    "methods": {},
    "version": 1
  },
  "userdoc": {
    "kind": "user",
    "methods": {},
    "version": 1
  }
}